:020000000C945E
:10000200C1000C9400000C9400000C9400000C94AD
:1000120000000C9400000C9400000C9400000C945E
:1000220000000C9400000C9400000C9400000C944E
:1000320000000C9400000C9400000C9400000C943E
:1000420000000C9400000C9400000C9400000C942E
:1000520000001027E80364000A00010000100001FC
:10006200100001000100600165016A016F01750164
:100072007D01810186018C018F0196019901A10107
:10008200A9013030303000313131310046696C65C0
:10009200004D6F746F720053657474696E67004E21
:1000A2006577004564697400436C6F73650044436F
:1000B200005374657065720041430053657450616A
:1000C200737300566F6C74616765004461746526D2
:1000D20054696D650046494E4953482E0025303219
:1000E200752F253032752F25303275202D20446131
:1000F2007920257500253032753A253032753A253A
:100102003032750080C00200080066000500600100
:1001120084000500650189000400DB016800050018
:100122006A018E0006006F019300080075019900B4
:100132000600DF016C0004007D01A10005008101C1
:10014200A50006008601AA0003008C01B00007008A
:100152008F01B30003009601BA0008009901BD00A7
:100162000800A101C5000A00A901CD001200E501A5
:1001720072000800B301D7000200FA010601000074
:10018200F894EE27ECBBF1E0FBBFEBBFE5BF8DE0DF
:10019200A2E0BB27ED938A95E9F780E094E0A0E620
:1001A200ED930197E9F7E8E0F1E0859195910097E9
:1001B20061F0A591B59105901590BF01F0010590F0
:1001C2000D920197E1F7FB01F0CFEFE5EDBFE4E01F
:1001D200EEBFC0E6D1E00C94EE00E0E0EABBEBBB80
:1001E200E7BBE8BBE4BBE5BBE1BBE2BBE3BFE2BF0D
:1001F200ECBFEFBDEEBDEDBDECBDE7BDE6BDEBBDB9
:10020200EABDE9BDE8BDE2BDE5BDE4BDE3BDE9BFD0
:10021200E5BFE4BFEAB9E0E8E8B9E0E0E0BFE6B98B
:10022200EDB9E6BF0E946203A0E164D1E7E0EA9380
:10023200E5E0EA93E8E1EA93A8E10E94C202E8E07D
:10024200EA93E6E0EA93A1E00E94B502E0EAEA93CB
:100252008A92E091DB01F091DC010E94DC020E94B3
:10026200E602442455240E94F00278F4E0EAEA937C
:100272008A920E94F502FA93EA930E94F5020E9482
:10028200FF02F20131962F01EECF442455240E9441
:10029200F002D0F466247724E3E0F0E06E167F06E5
:1002A20078F4E0EAEA938A920E940403FA93EA93CA
:1002B2000E9404030E94FF02F30131963F01ECCF3A
:1002C200F20131962F01E3CFE1E0F0E04F010E940D
:1002D20014030E94DC020E941A03442455240E9443
:1002E200F00280F40E941403FA93EA930E94F5024A
:1002F200DF010E94A902AE2F0E941A03F201319679
:100302002F01EDCF442455240E94F00268F56624A3
:100312007724E3E0F0E06E167F0610F50E941403E6
:10032200FA93EA930E940403DF010E94A902AE2F0E
:1003320040D0AAE0B0E00E94B303F40170964F01EE
:100342009AD0E0E0EA93A1E085D0ABEBB1E0C1D076
:10035200A8EEB3E00E94B303F30131963F01D9CF77
:10036200F20131962F01D0CF86D0A3EBB1E0B1D00C
:10037200FFCFFFCFAA931A930E946703AD810E9419
:100382009B03AC810E949B03E981E150E983EF5F0B
:1003920049F0AA81BB811D91AA83BB83A12F0E9430
:1003A2009B03F2CF10E0A12F0E9432031881269600
:1003B2000895AA930E946703AC810E949B03AB81BC
:1003C2000E949B030E946703EC81E160AE2F0E94B2
:1003D2009B03E881E150E88359F00E943603FF93C2
:1003E200EF93A1E00E948003AF91BF91EC93F1CF14
:1003F2000E943603FF93EF93A0E00E948003AF9127
:10040200BF91EC93A981BA81E0E0EC930E9476035C
:1004120025960895AA93E8B3EF70AE2FE881E07FA6
:10042200EA2BE8BB82E08A95F1F7C29A82E08A95CC
:10043200F1F7C29882E08A95F1F788C0AA93A88161
:10044200E9DFE881E295E883A881E4DF81E18A952A
:10045200F1F77CC0AA93E881F0E0E650FE4FE0811C
:10046200A981AE0FEBDFE981E093FE01E881E09321
:10047200FF0122960895A2E00E943D03ACE0DEDF78
:10048200A1E00E943D03E0E0E093FF01E093FE0162
:100492000895AA93A881AA3031F0E0910002A091B8
:1004A200FE01AE1760F0E0E0EA93A091FF01AF5FBA
:1004B200A093FF01CFDFA881AA3009F447C0E091E1
:1004C200FE01EF5FE093FE01C09AA881B7DFC098FA
:1004D2003DC0BA93AA931A93A981BA81ED91A983D7
:1004E200BA831E2FE03019F0A12FD3DFF5CF188188
:1004F2000C94C002AA93E7B3E06FE7BBBA9AB89A2A
:10050200B99AC298C098C198E881E0930002E05875
:10051200E093FC01E881E054E093FD01A4E1B0E046
:100522000E94B3030E9443030E9443030E944303B9
:10053200A0E270DF81E28A95F1F7A8E27FDFA4E012
:100542007DDFA5E87BDFA6E079DF95DF21960895C0
:10055200BA93AA93A991B991EE27FF276D916623C9
:1005620011F03196FBCF08950E944A03A0E00E9449
:1005720050030E9456030E945C030E94320323969A
:1005820008950E944A03A3E00E949B03AB810E944C
:100592005C030E9456030E9450030E943203249679
:1005A2000895AA93A991EE27AA5012F0E05FFCCF1A
:1005B200A65FEA0F0895FA93EA93A091DB01B09146
:1005C200DC010E94A902AE2F08950E94BB01AAE09D
:1005D200B0E00E94B303F40170964F010895E3E086
:1005E200F0E04E165F060895F201AFEDB1E0EE0FB6
:1005F200FF1FAE0FBF1F0E94C5030895DF010E94B7
:10060200A902AE2FE2CFF201A6E0B0E00E94BD0344
:10061200EB51FE4FDF01F301EE0FFF1FAE0FBF1FC5
:100622000E94C5030895E0EAEA938A92EBEBF1E0B7
:1006320008950E94DA01AAE0B0E00E94B303F40137
:1006420070964F010E943C02E0E0EA93A0E00E9413
:100652002B02ABEBB1E00E946A02A8EEB3E00C946D
:10066200B3030E949B030C947603E981FA813196CD
:10067200E983FA83319708950E941F02A3E0B0E054
:100682000C94B303A0E30E940B0281E28A95F1F776
:100692000895AA930E946703A0ED0C949B030E9405
:1006A2009B03A8817EDFAE2F08950E949B03A98140
:1006B20078DFAE2F08950E949B03AA8172DFAE2FCE
:1006C200089590989198889A899815C089988898E1
:1006D200EE270000819B0895809B089504D0899A9B
:1006E20002D0889AE1E062E007C0899A889A03D032
:1006F2008898F9DF899863E06A95F1F7089578E0C0
:100702008898F1DF809BFECFEEDF88948199089470
:10071200889AF1DFEE1F7A9599F77A2F772311F4F1
:10072200899801C0899ADFDF8898E5DF889ADBDF44
:100732008998D9CF78E0AA0F10F4899801C0899AD4
:10074200DADF8898D0DF809BFECFCDDF889A7A955A
:1007520091F78998C8DF8898CEDFE1E08199EE278A
:10076200889AC1CF109639F0A8958AEF90E0019748
:10077200F1F71197C9F70895FA9FF02DEB9FF00D4D
:10078200EA9FE02DF10D0895ED91FC9111970895E6
:00000001FF
